{"abi":[{"inputs":[{"internalType":"address","name":"_priceFeed","type":"address"}],"stateMutability":"nonpayable","type":"constructor","name":"constructor"},{"anonymous":false,"inputs":[{"indexed":true,"internalType":"address","name":"previousOwner","type":"address"},{"indexed":true,"internalType":"address","name":"newOwner","type":"address"}],"name":"OwnershipTransferred","type":"event"},{"inputs":[{"internalType":"uint256","name":"_instance","type":"uint256"}],"name":"claimReward","outputs":[],"stateMutability":"nonpayable","type":"function"},{"inputs":[],"name":"closePredictionPool","outputs":[],"stateMutability":"nonpayable","type":"function"},{"inputs":[{"internalType":"uint256","name":"_commitment","type":"uint256"},{"internalType":"uint256","name":"_start","type":"uint256"},{"internalType":"uint256","name":"_lock","type":"uint256"},{"internalType":"uint256","name":"_end","type":"uint256"}],"name":"createInstance","outputs":[],"stateMutability":"payable","type":"function"},{"inputs":[],"name":"fee","outputs":[{"internalType":"uint256","name":"","type":"uint256"}],"stateMutability":"view","type":"function"},{"inputs":[{"internalType":"uint256","name":"","type":"uint256"},{"internalType":"address","name":"","type":"address"}],"name":"hasParticipated","outputs":[{"internalType":"bool","name":"","type":"bool"}],"stateMutability":"view","type":"function"},{"inputs":[{"internalType":"uint256","name":"_instance","type":"uint256"}],"name":"instanceView","outputs":[{"components":[{"internalType":"uint256","name":"commitment","type":"uint256"},{"internalType":"uint256","name":"startStamp","type":"uint256"},{"internalType":"uint256","name":"lockStamp","type":"uint256"},{"internalType":"uint256","name":"endStamp","type":"uint256"},{"internalType":"bool","name":"settlement","type":"bool"},{"internalType":"uint256","name":"winnersCount","type":"uint256"},{"internalType":"uint256","name":"instanceValue","type":"uint256"},{"internalType":"uint256","name":"closingPrice","type":"uint256"},{"internalType":"address","name":"creator","type":"address"}],"internalType":"struct PredictionPool.predictionSpec","name":"","type":"tuple"}],"stateMutability":"view","type":"function"},{"inputs":[],"name":"instanceViewAll","outputs":[{"components":[{"internalType":"uint256","name":"commitment","type":"uint256"},{"internalType":"uint256","name":"startStamp","type":"uint256"},{"internalType":"uint256","name":"lockStamp","type":"uint256"},{"internalType":"uint256","name":"endStamp","type":"uint256"},{"internalType":"bool","name":"settlement","type":"bool"},{"internalType":"uint256","name":"winnersCount","type":"uint256"},{"internalType":"uint256","name":"instanceValue","type":"uint256"},{"internalType":"uint256","name":"closingPrice","type":"uint256"},{"internalType":"address","name":"creator","type":"address"}],"internalType":"struct PredictionPool.predictionSpec[]","name":"","type":"tuple[]"}],"stateMutability":"view","type":"function"},{"inputs":[{"internalType":"uint256","name":"_instance","type":"uint256"},{"internalType":"address","name":"_account","type":"address"}],"name":"instanceWinnerView","outputs":[{"internalType":"bool","name":"","type":"bool"}],"stateMutability":"view","type":"function"},{"inputs":[],"name":"isActive","outputs":[{"internalType":"bool","name":"","type":"bool"}],"stateMutability":"view","type":"function"},{"inputs":[],"name":"openPredictionPool","outputs":[],"stateMutability":"nonpayable","type":"function"},{"inputs":[],"name":"owner","outputs":[{"internalType":"address","name":"","type":"address"}],"stateMutability":"view","type":"function"},{"inputs":[{"internalType":"uint256","name":"","type":"uint256"},{"internalType":"uint256","name":"","type":"uint256"}],"name":"participants","outputs":[{"internalType":"address","name":"","type":"address"}],"stateMutability":"view","type":"function"},{"inputs":[{"internalType":"uint256","name":"","type":"uint256"},{"internalType":"address","name":"","type":"address"}],"name":"predictions","outputs":[{"internalType":"uint256","name":"","type":"uint256"}],"stateMutability":"view","type":"function"},{"inputs":[{"internalType":"uint256","name":"","type":"uint256"}],"name":"predictionsSpec","outputs":[{"internalType":"uint256","name":"commitment","type":"uint256"},{"internalType":"uint256","name":"startStamp","type":"uint256"},{"internalType":"uint256","name":"lockStamp","type":"uint256"},{"internalType":"uint256","name":"endStamp","type":"uint256"},{"internalType":"bool","name":"settlement","type":"bool"},{"internalType":"uint256","name":"winnersCount","type":"uint256"},{"internalType":"uint256","name":"instanceValue","type":"uint256"},{"internalType":"uint256","name":"closingPrice","type":"uint256"},{"internalType":"address","name":"creator","type":"address"}],"stateMutability":"view","type":"function"},{"inputs":[{"internalType":"uint256","name":"_instance","type":"uint256"},{"internalType":"uint256","name":"_prediction","type":"uint256"}],"name":"registerPrediction","outputs":[],"stateMutability":"payable","type":"function"},{"inputs":[],"name":"renounceOwnership","outputs":[],"stateMutability":"nonpayable","type":"function"},{"inputs":[{"internalType":"uint256","name":"_fee","type":"uint256"}],"name":"setPoolFee","outputs":[],"stateMutability":"nonpayable","type":"function"},{"inputs":[{"internalType":"uint256","name":"_instance","type":"uint256"}],"name":"settleInstance","outputs":[],"stateMutability":"nonpayable","type":"function"},{"inputs":[{"internalType":"address","name":"newOwner","type":"address"}],"name":"transferOwnership","outputs":[],"stateMutability":"nonpayable","type":"function"},{"inputs":[{"internalType":"uint256","name":"","type":"uint256"},{"internalType":"address","name":"","type":"address"}],"name":"winners","outputs":[{"internalType":"bool","name":"","type":"bool"}],"stateMutability":"view","type":"function"}],"bytecode":"608060405234801561001057600080fd5b5060405161192938038061192983398101604081905261002f916100b2565b61003833610062565b600680546001600160a01b0319166001600160a01b039290921691909117905560646001556100e2565b600080546001600160a01b038381166001600160a01b0319831681178455604051919092169283917f8be0079c531659141344cd1fd0a4f28419497f9722a3daafe3b4186f6b6457e09190a35050565b6000602082840312156100c457600080fd5b81516001600160a01b03811681146100db57600080fd5b9392505050565b611838806100f16000396000f3fe60806040526004361061011f5760003560e01c80639578ea0d116100a0578063bb36a61e11610064578063bb36a61e146103a5578063c6508080146103e0578063ddca3f4314610400578063ec87c36214610416578063f2fde38b1461042957600080fd5b80639578ea0d14610300578063972b7bd914610315578063a34398a21461032a578063ae169a5014610365578063af70065c1461038557600080fd5b806377166535116100e7578063771665351461023157806381fb1fb4146102445780638da5cb5b1461027c57806392b108d01461029a5780639501dc87146102e057600080fd5b806308395bec1461012457806322f3e2d41461015a5780632f583f961461018b578063715018a6146101f85780637297a3271461020f575b600080fd5b34801561013057600080fd5b5061014461013f366004611423565b610449565b604051610151919061149d565b60405180910390f35b34801561016657600080fd5b5060005461017b90600160a01b900460ff1681565b6040519015158152602001610151565b34801561019757600080fd5b506101ab6101a6366004611423565b61053f565b60408051998a5260208a0198909852968801959095526060870193909352901515608086015260a085015260c084015260e08301526001600160a01b031661010082015261012001610151565b34801561020457600080fd5b5061020d6105a7565b005b34801561021b57600080fd5b506102246105e6565b60405161015191906114ac565b61020d61023f3660046114fb565b6106a9565b34801561025057600080fd5b5061026461025f36600461152d565b610914565b6040516001600160a01b039091168152602001610151565b34801561028857600080fd5b506000546001600160a01b0316610264565b3480156102a657600080fd5b506102d26102b536600461156b565b600260209081526000928352604080842090915290825290205481565b604051908152602001610151565b3480156102ec57600080fd5b5061020d6102fb366004611423565b61094c565b34801561030c57600080fd5b5061020d61097b565b34801561032157600080fd5b5061020d6109b4565b34801561033657600080fd5b5061017b61034536600461156b565b600460209081526000928352604080842090915290825290205460ff1681565b34801561037157600080fd5b5061020d610380366004611423565b6109f3565b34801561039157600080fd5b5061017b6103a036600461156b565b610bc2565b3480156103b157600080fd5b5061017b6103c036600461156b565b600560209081526000928352604080842090915290825290205460ff1681565b3480156103ec57600080fd5b5061020d6103fb366004611423565b610bef565b34801561040c57600080fd5b506102d260015481565b61020d61042436600461152d565b610db0565b34801561043557600080fd5b5061020d610444366004611597565b611039565b6104a36040518061012001604052806000815260200160008152602001600081526020016000815260200160001515815260200160008152602001600081526020016000815260200160006001600160a01b031681525090565b600782815481106104b6576104b66115b2565b6000918252602091829020604080516101208101825260099093029091018054835260018101549383019390935260028301549082015260038201546060820152600482015460ff1615156080820152600582015460a0820152600682015460c0820152600782015460e08201526008909101546001600160a01b031661010082015292915050565b6007818154811061054f57600080fd5b600091825260209091206009909102018054600182015460028301546003840154600485015460058601546006870154600788015460089098015496985094969395929460ff9092169390926001600160a01b031689565b6000546001600160a01b031633146105da5760405162461bcd60e51b81526004016105d1906115c8565b60405180910390fd5b6105e460006110d4565b565b60606007805480602002602001604051908101604052809291908181526020016000905b828210156106a0576000848152602090819020604080516101208101825260098602909201805483526001808201548486015260028201549284019290925260038101546060840152600481015460ff1615156080840152600581015460a0840152600681015460c0840152600781015460e0840152600801546001600160a01b0316610100830152908352909201910161060a565b50505050905090565b600054600160a01b900460ff1615156001146106c457600080fd5b6611c37937e080003410156107385760405162461bcd60e51b815260206004820152603460248201527f596f75206d757374207370656e6420302e3030352045544820746f20637265616044820152737465206120637573746f6d20696e7374616e636560601b60648201526084016105d1565b60408051610120810182529485526020850193845284019182526060840190815260006080850181815260a0860182815260c0870183815260e08801848152336101008a0190815260078054600181018255965298517fa66cc928b5edb82af9bd49922954155ab7b0942694bea4ce44661d9a8736c68860099096029586015596517fa66cc928b5edb82af9bd49922954155ab7b0942694bea4ce44661d9a8736c68985015594517fa66cc928b5edb82af9bd49922954155ab7b0942694bea4ce44661d9a8736c68a84015592517fa66cc928b5edb82af9bd49922954155ab7b0942694bea4ce44661d9a8736c68b830155517fa66cc928b5edb82af9bd49922954155ab7b0942694bea4ce44661d9a8736c68c8201805460ff191691151591909117905590517fa66cc928b5edb82af9bd49922954155ab7b0942694bea4ce44661d9a8736c68d82015590517fa66cc928b5edb82af9bd49922954155ab7b0942694bea4ce44661d9a8736c68e82015590517fa66cc928b5edb82af9bd49922954155ab7b0942694bea4ce44661d9a8736c68f82015590517fa66cc928b5edb82af9bd49922954155ab7b0942694bea4ce44661d9a8736c69090910180546001600160a01b0319166001600160a01b03909216919091179055565b6003602052816000526040600020818154811061093057600080fd5b6000918252602090912001546001600160a01b03169150829050565b6000546001600160a01b031633146109765760405162461bcd60e51b81526004016105d1906115c8565b600155565b6000546001600160a01b031633146109a55760405162461bcd60e51b81526004016105d1906115c8565b6000805460ff60a01b19169055565b6000546001600160a01b031633146109de5760405162461bcd60e51b81526004016105d1906115c8565b6000805460ff60a01b1916600160a01b179055565b60078181548110610a0657610a066115b2565b906000526020600020906009020160030154421015610a675760405162461bcd60e51b815260206004820152601e60248201527f526577617264732063616e6e6f7420626520636c61696d65642079657421000060448201526064016105d1565b600081815260056020908152604080832033845290915290205460ff161515600114610aea5760405162461bcd60e51b815260206004820152602c60248201527f4c6f6f6b7320796f7520617265206e6f7420612077696e6e6572206f6620746860448201526b697320696e7374616e63652160a01b60648201526084016105d1565b600061271060078381548110610b0257610b026115b2565b906000526020600020906009020160060154600154612710610b249190611613565b610b2e919061162a565b610b38919061165f565b9050600060078381548110610b4f57610b4f6115b2565b90600052602060002090600902016005015482610b6c919061165f565b604051909150339082156108fc029083906000818181858888f19350505050158015610b9c573d6000803e3d6000fd5b50505060009081526005602090815260408083203384529091529020805460ff19169055565b60008281526005602090815260408083206001600160a01b038516845290915290205460ff165b92915050565b600054600160a01b900460ff161515600114610c0a57600080fd5b60078181548110610c1d57610c1d6115b2565b906000526020600020906009020160030154421015610c965760405162461bcd60e51b815260206004820152602f60248201527f50726564696374696f6e20686173206e6f7420656e6465642079657420666f7260448201526e207468697320696e7374616e63652160881b60648201526084016105d1565b60078181548110610ca957610ca96115b2565b600091825260209091206004600990920201015460ff1615610d1d5760405162461bcd60e51b815260206004820152602760248201527f5468697320696e7374616e63652068617320616c7265616479206265656e20736044820152666574746c65642160c81b60648201526084016105d1565b6000610d27611124565b90508060078381548110610d3d57610d3d6115b2565b9060005260206000209060090201600701819055506000610d5e83836111c1565b9050610d6a83826112f9565b600160078481548110610d7f57610d7f6115b2565b60009182526020909120600990910201600401805460ff1916911515919091179055610dab83336113eb565b505050565b600054600160a01b900460ff161515600114610dcb57600080fd5b60078281548110610dde57610dde6115b2565b906000526020600020906009020160010154421015610e595760405162461bcd60e51b815260206004820152603160248201527f50726564696374696f6e20686173206e6f7420737461727465642079657420666044820152706f72207468697320696e7374616e63652160781b60648201526084016105d1565b60078281548110610e6c57610e6c6115b2565b906000526020600020906009020160020154421115610edd5760405162461bcd60e51b815260206004820152602760248201527f50726564696374696f6e2068617320656e64656420666f72207468697320696e6044820152667374616e63652160c81b60648201526084016105d1565b60078281548110610ef057610ef06115b2565b9060005260206000209060090201600001543414610f675760405162461bcd60e51b815260206004820152602e60248201527f596f75206d75737420636f6d6d6974207468652065786163742045544820616d60448201526d6f756e7420746f20656e7465722160901b60648201526084016105d1565b6000828152600260209081526040808320338085529083528184208590558584526004835281842090845290915290205460ff161515600114610fd75760008281526003602090815260408220805460018101825590835291200180546001600160a01b03191633179055610ffc565b60008281526004602090815260408083203384529091529020805460ff191660011790555b3460078381548110611010576110106115b2565b906000526020600020906009020160060160008282546110309190611673565b90915550505050565b6000546001600160a01b031633146110635760405162461bcd60e51b81526004016105d1906115c8565b6001600160a01b0381166110c85760405162461bcd60e51b815260206004820152602660248201527f4f776e61626c653a206e6577206f776e657220697320746865207a65726f206160448201526564647265737360d01b60648201526084016105d1565b6110d1816110d4565b50565b600080546001600160a01b038381166001600160a01b0319831681178455604051919092169283917f8be0079c531659141344cd1fd0a4f28419497f9722a3daafe3b4186f6b6457e09190a35050565b600080600660009054906101000a90046001600160a01b03166001600160a01b031663feaf968c6040518163ffffffff1660e01b815260040160a060405180830381865afa15801561117a573d6000803e3d6000fd5b505050506040513d601f19601f8201168201806040525081019061119e91906116a5565b505050915050600081670de0b6b3a76400006111ba91906116f5565b9392505050565b60008281526003602052604081205461122d5760405162461bcd60e51b815260206004820152602860248201527f4c6f6f6b73206e6f206f6e6520686173206a6f696e65642074686520696e737460448201526730b731b29017171760c11b60648201526084016105d1565b600019600081815b6000878152600360205260409020548110156112ef57600087815260036020526040812080548390811061126b5761126b6115b2565b60009182526020808320909101548a83526002825260408084206001600160a01b039092168085529190925290822054909250906112a98983611723565b9050600081126112bb578095506112ca565b6112c781600019611762565b95505b868610156112d9578194508596505b50505080806112e7906117e7565b915050611235565b5095945050505050565b60005b600083815260036020526040902054811015610dab576000838152600360205260408120805483908110611332576113326115b2565b60009182526020808320909101548683526002825260408084206001600160a01b0390921680855291909252912054909150838114156113d65760008581526005602090815260408083206001600160a01b03861684529091529020805460ff1916600190811790915560078054879081106113b0576113b06115b2565b906000526020600020906009020160050160008282546113d09190611673565b90915550505b505080806113e3906117e7565b9150506112fc565b6040516001600160a01b038216906000906611c37937e080009082818181858883f19350505050158015610dab573d6000803e3d6000fd5b60006020828403121561143557600080fd5b5035919050565b8051825260208082015190830152604080820151908301526060808201519083015260808082015115159083015260a0808201519083015260c0808201519083015260e08082015190830152610100908101516001600160a01b0316910152565b6101208101610be9828461143c565b6020808252825182820181905260009190848201906040850190845b818110156114ef576114db83855161143c565b9284019261012092909201916001016114c8565b50909695505050505050565b6000806000806080858703121561151157600080fd5b5050823594602084013594506040840135936060013592509050565b6000806040838503121561154057600080fd5b50508035926020909101359150565b80356001600160a01b038116811461156657600080fd5b919050565b6000806040838503121561157e57600080fd5b8235915061158e6020840161154f565b90509250929050565b6000602082840312156115a957600080fd5b6111ba8261154f565b634e487b7160e01b600052603260045260246000fd5b6020808252818101527f4f776e61626c653a2063616c6c6572206973206e6f7420746865206f776e6572604082015260600190565b634e487b7160e01b600052601160045260246000fd5b600082821015611625576116256115fd565b500390565b6000816000190483118215151615611644576116446115fd565b500290565b634e487b7160e01b600052601260045260246000fd5b60008261166e5761166e611649565b500490565b60008219821115611686576116866115fd565b500190565b805169ffffffffffffffffffff8116811461156657600080fd5b600080600080600060a086880312156116bd57600080fd5b6116c68661168b565b94506020860151935060408601519250606086015191506116e96080870161168b565b90509295509295909350565b60008261170457611704611649565b600160ff1b82146000198414161561171e5761171e6115fd565b500590565b60008083128015600160ff1b850184121615611741576117416115fd565b6001600160ff1b038401831381161561175c5761175c6115fd565b50500390565b60006001600160ff1b0381841382841380821686840486111615611788576117886115fd565b600160ff1b60008712828116878305891216156117a7576117a76115fd565b600087129250878205871284841616156117c3576117c36115fd565b878505871281841616156117d9576117d96115fd565b505050929093029392505050565b60006000198214156117fb576117fb6115fd565b506001019056fea2646970667358221220c78def5ff21c13588ee42e5d0600c92634e5ce3fd3a6dc83203a4889c7d6d22564736f6c634300080b0033","bytecodeSha1":"44f21b8859595017277cdcb018b5faa7761b25b4","compiler":{"evm_version":"istanbul","optimizer":{"enabled":true,"runs":200},"version":"0.8.11+commit.d7f03943"},"contractName":"PredictionPool","language":"Solidity","natspec":{"details":"Contract module which can create prediction instance and let users post their own prediction for ETH/USD future price. Settlement is made based on Chainlink price Oracle.","kind":"dev","methods":{"claimReward(uint256)":{"details":"pays winners if they claim their gain"},"closePredictionPool()":{"details":"lets admin close the pool"},"createInstance(uint256,uint256,uint256,uint256)":{"details":"lets any user create a prediction instance (payable)"},"openPredictionPool()":{"details":"lets admin open the pool"},"owner()":{"details":"Returns the address of the current owner."},"registerPrediction(uint256,uint256)":{"details":"registers prediction of users"},"renounceOwnership()":{"details":"Leaves the contract without owner. It will not be possible to call `onlyOwner` functions anymore. Can only be called by the current owner. NOTE: Renouncing ownership will leave the contract without an owner, thereby removing any functionality that is only available to the owner."},"setPoolFee(uint256)":{"details":"sets pool fee that's deducted from final settlement"},"settleInstance(uint256)":{"details":"settles any instance if timestamp respected"},"transferOwnership(address)":{"details":"Transfers ownership of the contract to a new account (`newOwner`). Can only be called by the current owner."}},"stateVariables":{"predictionsSpec":{"details":"array of predictionSpec"}},"version":1},"opcodes":"PUSH1 0x80 PUSH1 0x40 MSTORE PUSH1 0x4 CALLDATASIZE LT PUSH2 0x11F JUMPI PUSH1 0x0 CALLDATALOAD PUSH1 0xE0 SHR DUP1 PUSH4 0x9578EA0D GT PUSH2 0xA0 JUMPI DUP1 PUSH4 0xBB36A61E GT PUSH2 0x64 JUMPI DUP1 PUSH4 0xBB36A61E EQ PUSH2 0x3A5 JUMPI DUP1 PUSH4 0xC6508080 EQ PUSH2 0x3E0 JUMPI DUP1 PUSH4 0xDDCA3F43 EQ PUSH2 0x400 JUMPI DUP1 PUSH4 0xEC87C362 EQ PUSH2 0x416 JUMPI DUP1 PUSH4 0xF2FDE38B EQ PUSH2 0x429 JUMPI PUSH1 0x0 DUP1 REVERT JUMPDEST DUP1 PUSH4 0x9578EA0D EQ PUSH2 0x300 JUMPI DUP1 PUSH4 0x972B7BD9 EQ PUSH2 0x315 JUMPI DUP1 PUSH4 0xA34398A2 EQ PUSH2 0x32A JUMPI DUP1 PUSH4 0xAE169A50 EQ PUSH2 0x365 JUMPI DUP1 PUSH4 0xAF70065C EQ PUSH2 0x385 JUMPI PUSH1 0x0 DUP1 REVERT JUMPDEST DUP1 PUSH4 0x77166535 GT PUSH2 0xE7 JUMPI DUP1 PUSH4 0x77166535 EQ PUSH2 0x231 JUMPI DUP1 PUSH4 0x81FB1FB4 EQ PUSH2 0x244 JUMPI DUP1 PUSH4 0x8DA5CB5B EQ PUSH2 0x27C JUMPI DUP1 PUSH4 0x92B108D0 EQ PUSH2 0x29A JUMPI DUP1 PUSH4 0x9501DC87 EQ PUSH2 0x2E0 JUMPI PUSH1 0x0 DUP1 REVERT JUMPDEST DUP1 PUSH4 0x8395BEC EQ PUSH2 0x124 JUMPI DUP1 PUSH4 0x22F3E2D4 EQ PUSH2 0x15A JUMPI DUP1 PUSH4 0x2F583F96 EQ PUSH2 0x18B JUMPI DUP1 PUSH4 0x715018A6 EQ PUSH2 0x1F8 JUMPI DUP1 PUSH4 0x7297A327 EQ PUSH2 0x20F JUMPI JUMPDEST PUSH1 0x0 DUP1 REVERT JUMPDEST CALLVALUE DUP1 ISZERO PUSH2 0x130 JUMPI PUSH1 0x0 DUP1 REVERT JUMPDEST POP PUSH2 0x144 PUSH2 0x13F CALLDATASIZE PUSH1 0x4 PUSH2 0x1423 JUMP JUMPDEST PUSH2 0x449 JUMP JUMPDEST PUSH1 0x40 MLOAD PUSH2 0x151 SWAP2 SWAP1 PUSH2 0x149D JUMP JUMPDEST PUSH1 0x40 MLOAD DUP1 SWAP2 SUB SWAP1 RETURN JUMPDEST CALLVALUE DUP1 ISZERO PUSH2 0x166 JUMPI PUSH1 0x0 DUP1 REVERT JUMPDEST POP PUSH1 0x0 SLOAD PUSH2 0x17B SWAP1 PUSH1 0x1 PUSH1 0xA0 SHL SWAP1 DIV PUSH1 0xFF AND DUP2 JUMP JUMPDEST PUSH1 0x40 MLOAD SWAP1 ISZERO ISZERO DUP2 MSTORE PUSH1 0x20 ADD PUSH2 0x151 JUMP JUMPDEST CALLVALUE DUP1 ISZERO PUSH2 0x197 JUMPI PUSH1 0x0 DUP1 REVERT JUMPDEST POP PUSH2 0x1AB PUSH2 0x1A6 CALLDATASIZE PUSH1 0x4 PUSH2 0x1423 JUMP JUMPDEST PUSH2 0x53F JUMP JUMPDEST PUSH1 0x40 DUP1 MLOAD SWAP10 DUP11 MSTORE PUSH1 0x20 DUP11 ADD SWAP9 SWAP1 SWAP9 MSTORE SWAP7 DUP9 ADD SWAP6 SWAP1 SWAP6 MSTORE PUSH1 0x60 DUP8 ADD SWAP4 SWAP1 SWAP4 MSTORE SWAP1 ISZERO ISZERO PUSH1 0x80 DUP7 ADD MSTORE PUSH1 0xA0 DUP6 ADD MSTORE PUSH1 0xC0 DUP5 ADD MSTORE PUSH1 0xE0 DUP4 ADD MSTORE PUSH1 0x1 PUSH1 0x1 PUSH1 0xA0 SHL SUB AND PUSH2 0x100 DUP3 ADD MSTORE PUSH2 0x120 ADD PUSH2 0x151 JUMP JUMPDEST CALLVALUE DUP1 ISZERO PUSH2 0x204 JUMPI PUSH1 0x0 DUP1 REVERT JUMPDEST POP PUSH2 0x20D PUSH2 0x5A7 JUMP JUMPDEST STOP JUMPDEST CALLVALUE DUP1 ISZERO PUSH2 0x21B JUMPI PUSH1 0x0 DUP1 REVERT JUMPDEST POP PUSH2 0x224 PUSH2 0x5E6 JUMP JUMPDEST PUSH1 0x40 MLOAD PUSH2 0x151 SWAP2 SWAP1 PUSH2 0x14AC JUMP JUMPDEST PUSH2 0x20D PUSH2 0x23F CALLDATASIZE PUSH1 0x4 PUSH2 0x14FB JUMP JUMPDEST PUSH2 0x6A9 JUMP JUMPDEST CALLVALUE DUP1 ISZERO PUSH2 0x250 JUMPI PUSH1 0x0 DUP1 REVERT JUMPDEST POP PUSH2 0x264 PUSH2 0x25F CALLDATASIZE PUSH1 0x4 PUSH2 0x152D JUMP JUMPDEST PUSH2 0x914 JUMP JUMPDEST PUSH1 0x40 MLOAD PUSH1 0x1 PUSH1 0x1 PUSH1 0xA0 SHL SUB SWAP1 SWAP2 AND DUP2 MSTORE PUSH1 0x20 ADD PUSH2 0x151 JUMP JUMPDEST CALLVALUE DUP1 ISZERO PUSH2 0x288 JUMPI PUSH1 0x0 DUP1 REVERT JUMPDEST POP PUSH1 0x0 SLOAD PUSH1 0x1 PUSH1 0x1 PUSH1 0xA0 SHL SUB AND PUSH2 0x264 JUMP JUMPDEST CALLVALUE DUP1 ISZERO PUSH2 0x2A6 JUMPI PUSH1 0x0 DUP1 REVERT JUMPDEST POP PUSH2 0x2D2 PUSH2 0x2B5 CALLDATASIZE PUSH1 0x4 PUSH2 0x156B JUMP JUMPDEST PUSH1 0x2 PUSH1 0x20 SWAP1 DUP2 MSTORE PUSH1 0x0 SWAP3 DUP4 MSTORE PUSH1 0x40 DUP1 DUP5 KECCAK256 SWAP1 SWAP2 MSTORE SWAP1 DUP3 MSTORE SWAP1 KECCAK256 SLOAD DUP2 JUMP JUMPDEST PUSH1 0x40 MLOAD SWAP1 DUP2 MSTORE PUSH1 0x20 ADD PUSH2 0x151 JUMP JUMPDEST CALLVALUE DUP1 ISZERO PUSH2 0x2EC JUMPI PUSH1 0x0 DUP1 REVERT JUMPDEST POP PUSH2 0x20D PUSH2 0x2FB CALLDATASIZE PUSH1 0x4 PUSH2 0x1423 JUMP JUMPDEST PUSH2 0x94C JUMP JUMPDEST CALLVALUE DUP1 ISZERO PUSH2 0x30C JUMPI PUSH1 0x0 DUP1 REVERT JUMPDEST POP PUSH2 0x20D PUSH2 0x97B JUMP JUMPDEST CALLVALUE DUP1 ISZERO PUSH2 0x321 JUMPI PUSH1 0x0 DUP1 REVERT JUMPDEST POP PUSH2 0x20D PUSH2 0x9B4 JUMP JUMPDEST CALLVALUE DUP1 ISZERO PUSH2 0x336 JUMPI PUSH1 0x0 DUP1 REVERT JUMPDEST POP PUSH2 0x17B PUSH2 0x345 CALLDATASIZE PUSH1 0x4 PUSH2 0x156B JUMP JUMPDEST PUSH1 0x4 PUSH1 0x20 SWAP1 DUP2 MSTORE PUSH1 0x0 SWAP3 DUP4 MSTORE PUSH1 0x40 DUP1 DUP5 KECCAK256 SWAP1 SWAP2 MSTORE SWAP1 DUP3 MSTORE SWAP1 KECCAK256 SLOAD PUSH1 0xFF AND DUP2 JUMP JUMPDEST CALLVALUE DUP1 ISZERO PUSH2 0x371 JUMPI PUSH1 0x0 DUP1 REVERT JUMPDEST POP PUSH2 0x20D PUSH2 0x380 CALLDATASIZE PUSH1 0x4 PUSH2 0x1423 JUMP JUMPDEST PUSH2 0x9F3 JUMP JUMPDEST CALLVALUE DUP1 ISZERO PUSH2 0x391 JUMPI PUSH1 0x0 DUP1 REVERT JUMPDEST POP PUSH2 0x17B PUSH2 0x3A0 CALLDATASIZE PUSH1 0x4 PUSH2 0x156B JUMP JUMPDEST PUSH2 0xBC2 JUMP JUMPDEST CALLVALUE DUP1 ISZERO PUSH2 0x3B1 JUMPI PUSH1 0x0 DUP1 REVERT JUMPDEST POP PUSH2 0x17B PUSH2 0x3C0 CALLDATASIZE PUSH1 0x4 PUSH2 0x156B JUMP JUMPDEST PUSH1 0x5 PUSH1 0x20 SWAP1 DUP2 MSTORE PUSH1 0x0 SWAP3 DUP4 MSTORE PUSH1 0x40 DUP1 DUP5 KECCAK256 SWAP1 SWAP2 MSTORE SWAP1 DUP3 MSTORE SWAP1 KECCAK256 SLOAD PUSH1 0xFF AND DUP2 JUMP JUMPDEST CALLVALUE DUP1 ISZERO PUSH2 0x3EC JUMPI PUSH1 0x0 DUP1 REVERT JUMPDEST POP PUSH2 0x20D PUSH2 0x3FB CALLDATASIZE PUSH1 0x4 PUSH2 0x1423 JUMP JUMPDEST PUSH2 0xBEF JUMP JUMPDEST CALLVALUE DUP1 ISZERO PUSH2 0x40C JUMPI PUSH1 0x0 DUP1 REVERT JUMPDEST POP PUSH2 0x2D2 PUSH1 0x1 SLOAD DUP2 JUMP JUMPDEST PUSH2 0x20D PUSH2 0x424 CALLDATASIZE PUSH1 0x4 PUSH2 0x152D JUMP JUMPDEST PUSH2 0xDB0 JUMP JUMPDEST CALLVALUE DUP1 ISZERO PUSH2 0x435 JUMPI PUSH1 0x0 DUP1 REVERT JUMPDEST POP PUSH2 0x20D PUSH2 0x444 CALLDATASIZE PUSH1 0x4 PUSH2 0x1597 JUMP JUMPDEST PUSH2 0x1039 JUMP JUMPDEST PUSH2 0x4A3 PUSH1 0x40 MLOAD DUP1 PUSH2 0x120 ADD PUSH1 0x40 MSTORE DUP1 PUSH1 0x0 DUP2 MSTORE PUSH1 0x20 ADD PUSH1 0x0 DUP2 MSTORE PUSH1 0x20 ADD PUSH1 0x0 DUP2 MSTORE PUSH1 0x20 ADD PUSH1 0x0 DUP2 MSTORE PUSH1 0x20 ADD PUSH1 0x0 ISZERO ISZERO DUP2 MSTORE PUSH1 0x20 ADD PUSH1 0x0 DUP2 MSTORE PUSH1 0x20 ADD PUSH1 0x0 DUP2 MSTORE PUSH1 0x20 ADD PUSH1 0x0 DUP2 MSTORE PUSH1 0x20 ADD PUSH1 0x0 PUSH1 0x1 PUSH1 0x1 PUSH1 0xA0 SHL SUB AND DUP2 MSTORE POP SWAP1 JUMP JUMPDEST PUSH1 0x7 DUP3 DUP2 SLOAD DUP2 LT PUSH2 0x4B6 JUMPI PUSH2 0x4B6 PUSH2 0x15B2 JUMP JUMPDEST PUSH1 0x0 SWAP2 DUP3 MSTORE PUSH1 0x20 SWAP2 DUP3 SWAP1 KECCAK256 PUSH1 0x40 DUP1 MLOAD PUSH2 0x120 DUP2 ADD DUP3 MSTORE PUSH1 0x9 SWAP1 SWAP4 MUL SWAP1 SWAP2 ADD DUP1 SLOAD DUP4 MSTORE PUSH1 0x1 DUP2 ADD SLOAD SWAP4 DUP4 ADD SWAP4 SWAP1 SWAP4 MSTORE PUSH1 0x2 DUP4 ADD SLOAD SWAP1 DUP3 ADD MSTORE PUSH1 0x3 DUP3 ADD SLOAD PUSH1 0x60 DUP3 ADD MSTORE PUSH1 0x4 DUP3 ADD SLOAD PUSH1 0xFF AND ISZERO ISZERO PUSH1 0x80 DUP3 ADD MSTORE PUSH1 0x5 DUP3 ADD SLOAD PUSH1 0xA0 DUP3 ADD MSTORE PUSH1 0x6 DUP3 ADD SLOAD PUSH1 0xC0 DUP3 ADD MSTORE PUSH1 0x7 DUP3 ADD SLOAD PUSH1 0xE0 DUP3 ADD MSTORE PUSH1 0x8 SWAP1 SWAP2 ADD SLOAD PUSH1 0x1 PUSH1 0x1 PUSH1 0xA0 SHL SUB AND PUSH2 0x100 DUP3 ADD MSTORE SWAP3 SWAP2 POP POP JUMP JUMPDEST PUSH1 0x7 DUP2 DUP2 SLOAD DUP2 LT PUSH2 0x54F JUMPI PUSH1 0x0 DUP1 REVERT JUMPDEST PUSH1 0x0 SWAP2 DUP3 MSTORE PUSH1 0x20 SWAP1 SWAP2 KECCAK256 PUSH1 0x9 SWAP1 SWAP2 MUL ADD DUP1 SLOAD PUSH1 0x1 DUP3 ADD SLOAD PUSH1 0x2 DUP4 ADD SLOAD PUSH1 0x3 DUP5 ADD SLOAD PUSH1 0x4 DUP6 ADD SLOAD PUSH1 0x5 DUP7 ADD SLOAD PUSH1 0x6 DUP8 ADD SLOAD PUSH1 0x7 DUP9 ADD SLOAD PUSH1 0x8 SWAP1 SWAP9 ADD SLOAD SWAP7 SWAP9 POP SWAP5 SWAP7 SWAP4 SWAP6 SWAP3 SWAP5 PUSH1 0xFF SWAP1 SWAP3 AND SWAP4 SWAP1 SWAP3 PUSH1 0x1 PUSH1 0x1 PUSH1 0xA0 SHL SUB AND DUP10 JUMP JUMPDEST PUSH1 0x0 SLOAD PUSH1 0x1 PUSH1 0x1 PUSH1 0xA0 SHL SUB AND CALLER EQ PUSH2 0x5DA JUMPI PUSH1 0x40 MLOAD PUSH3 0x461BCD PUSH1 0xE5 SHL DUP2 MSTORE PUSH1 0x4 ADD PUSH2 0x5D1 SWAP1 PUSH2 0x15C8 JUMP JUMPDEST PUSH1 0x40 MLOAD DUP1 SWAP2 SUB SWAP1 REVERT JUMPDEST PUSH2 0x5E4 PUSH1 0x0 PUSH2 0x10D4 JUMP JUMPDEST JUMP JUMPDEST PUSH1 0x60 PUSH1 0x7 DUP1 SLOAD DUP1 PUSH1 0x20 MUL PUSH1 0x20 ADD PUSH1 0x40 MLOAD SWAP1 DUP2 ADD PUSH1 0x40 MSTORE DUP1 SWAP3 SWAP2 SWAP1 DUP2 DUP2 MSTORE PUSH1 0x20 ADD PUSH1 0x0 SWAP1 JUMPDEST DUP3 DUP3 LT ISZERO PUSH2 0x6A0 JUMPI PUSH1 0x0 DUP5 DUP2 MSTORE PUSH1 0x20 SWAP1 DUP2 SWAP1 KECCAK256 PUSH1 0x40 DUP1 MLOAD PUSH2 0x120 DUP2 ADD DUP3 MSTORE PUSH1 0x9 DUP7 MUL SWAP1 SWAP3 ADD DUP1 SLOAD DUP4 MSTORE PUSH1 0x1 DUP1 DUP3 ADD SLOAD DUP5 DUP7 ADD MSTORE PUSH1 0x2 DUP3 ADD SLOAD SWAP3 DUP5 ADD SWAP3 SWAP1 SWAP3 MSTORE PUSH1 0x3 DUP2 ADD SLOAD PUSH1 0x60 DUP5 ADD MSTORE PUSH1 0x4 DUP2 ADD SLOAD PUSH1 0xFF AND ISZERO ISZERO PUSH1 0x80 DUP5 ADD MSTORE PUSH1 0x5 DUP2 ADD SLOAD PUSH1 0xA0 DUP5 ADD MSTORE PUSH1 0x6 DUP2 ADD SLOAD PUSH1 0xC0 DUP5 ADD MSTORE PUSH1 0x7 DUP2 ADD SLOAD PUSH1 0xE0 DUP5 ADD MSTORE PUSH1 0x8 ADD SLOAD PUSH1 0x1 PUSH1 0x1 PUSH1 0xA0 SHL SUB AND PUSH2 0x100 DUP4 ADD MSTORE SWAP1 DUP4 MSTORE SWAP1 SWAP3 ADD SWAP2 ADD PUSH2 0x60A JUMP JUMPDEST POP POP POP POP SWAP1 POP SWAP1 JUMP JUMPDEST PUSH1 0x0 SLOAD PUSH1 0x1 PUSH1 0xA0 SHL SWAP1 DIV PUSH1 0xFF AND ISZERO ISZERO PUSH1 0x1 EQ PUSH2 0x6C4 JUMPI PUSH1 0x0 DUP1 REVERT JUMPDEST PUSH7 0x11C37937E08000 CALLVALUE LT ISZERO PUSH2 0x738 JUMPI PUSH1 0x40 MLOAD PUSH3 0x461BCD PUSH1 0xE5 SHL DUP2 MSTORE PUSH1 0x20 PUSH1 0x4 DUP3 ADD MSTORE PUSH1 0x34 PUSH1 0x24 DUP3 ADD MSTORE PUSH32 0x596F75206D757374207370656E6420302E3030352045544820746F2063726561 PUSH1 0x44 DUP3 ADD MSTORE PUSH20 0x7465206120637573746F6D20696E7374616E6365 PUSH1 0x60 SHL PUSH1 0x64 DUP3 ADD MSTORE PUSH1 0x84 ADD PUSH2 0x5D1 JUMP JUMPDEST PUSH1 0x40 DUP1 MLOAD PUSH2 0x120 DUP2 ADD DUP3 MSTORE SWAP5 DUP6 MSTORE PUSH1 0x20 DUP6 ADD SWAP4 DUP5 MSTORE DUP5 ADD SWAP2 DUP3 MSTORE PUSH1 0x60 DUP5 ADD SWAP1 DUP2 MSTORE PUSH1 0x0 PUSH1 0x80 DUP6 ADD DUP2 DUP2 MSTORE PUSH1 0xA0 DUP7 ADD DUP3 DUP2 MSTORE PUSH1 0xC0 DUP8 ADD DUP4 DUP2 MSTORE PUSH1 0xE0 DUP9 ADD DUP5 DUP2 MSTORE CALLER PUSH2 0x100 DUP11 ADD SWAP1 DUP2 MSTORE PUSH1 0x7 DUP1 SLOAD PUSH1 0x1 DUP2 ADD DUP3 SSTORE SWAP7 MSTORE SWAP9 MLOAD PUSH32 0xA66CC928B5EDB82AF9BD49922954155AB7B0942694BEA4CE44661D9A8736C688 PUSH1 0x9 SWAP1 SWAP7 MUL SWAP6 DUP7 ADD SSTORE SWAP7 MLOAD PUSH32 0xA66CC928B5EDB82AF9BD49922954155AB7B0942694BEA4CE44661D9A8736C689 DUP6 ADD SSTORE SWAP5 MLOAD PUSH32 0xA66CC928B5EDB82AF9BD49922954155AB7B0942694BEA4CE44661D9A8736C68A DUP5 ADD SSTORE SWAP3 MLOAD PUSH32 0xA66CC928B5EDB82AF9BD49922954155AB7B0942694BEA4CE44661D9A8736C68B DUP4 ADD SSTORE MLOAD PUSH32 0xA66CC928B5EDB82AF9BD49922954155AB7B0942694BEA4CE44661D9A8736C68C DUP3 ADD DUP1 SLOAD PUSH1 0xFF NOT AND SWAP2 ISZERO ISZERO SWAP2 SWAP1 SWAP2 OR SWAP1 SSTORE SWAP1 MLOAD PUSH32 0xA66CC928B5EDB82AF9BD49922954155AB7B0942694BEA4CE44661D9A8736C68D DUP3 ADD SSTORE SWAP1 MLOAD PUSH32 0xA66CC928B5EDB82AF9BD49922954155AB7B0942694BEA4CE44661D9A8736C68E DUP3 ADD SSTORE SWAP1 MLOAD PUSH32 0xA66CC928B5EDB82AF9BD49922954155AB7B0942694BEA4CE44661D9A8736C68F DUP3 ADD SSTORE SWAP1 MLOAD PUSH32 0xA66CC928B5EDB82AF9BD49922954155AB7B0942694BEA4CE44661D9A8736C690 SWAP1 SWAP2 ADD DUP1 SLOAD PUSH1 0x1 PUSH1 0x1 PUSH1 0xA0 SHL SUB NOT AND PUSH1 0x1 PUSH1 0x1 PUSH1 0xA0 SHL SUB SWAP1 SWAP3 AND SWAP2 SWAP1 SWAP2 OR SWAP1 SSTORE JUMP JUMPDEST PUSH1 0x3 PUSH1 0x20 MSTORE DUP2 PUSH1 0x0 MSTORE PUSH1 0x40 PUSH1 0x0 KECCAK256 DUP2 DUP2 SLOAD DUP2 LT PUSH2 0x930 JUMPI PUSH1 0x0 DUP1 REVERT JUMPDEST PUSH1 0x0 SWAP2 DUP3 MSTORE PUSH1 0x20 SWAP1 SWAP2 KECCAK256 ADD SLOAD PUSH1 0x1 PUSH1 0x1 PUSH1 0xA0 SHL SUB AND SWAP2 POP DUP3 SWAP1 POP JUMP JUMPDEST PUSH1 0x0 SLOAD PUSH1 0x1 PUSH1 0x1 PUSH1 0xA0 SHL SUB AND CALLER EQ PUSH2 0x976 JUMPI PUSH1 0x40 MLOAD PUSH3 0x461BCD PUSH1 0xE5 SHL DUP2 MSTORE PUSH1 0x4 ADD PUSH2 0x5D1 SWAP1 PUSH2 0x15C8 JUMP JUMPDEST PUSH1 0x1 SSTORE JUMP JUMPDEST PUSH1 0x0 SLOAD PUSH1 0x1 PUSH1 0x1 PUSH1 0xA0 SHL SUB AND CALLER EQ PUSH2 0x9A5 JUMPI PUSH1 0x40 MLOAD PUSH3 0x461BCD PUSH1 0xE5 SHL DUP2 MSTORE PUSH1 0x4 ADD PUSH2 0x5D1 SWAP1 PUSH2 0x15C8 JUMP JUMPDEST PUSH1 0x0 DUP1 SLOAD PUSH1 0xFF PUSH1 0xA0 SHL NOT AND SWAP1 SSTORE JUMP JUMPDEST PUSH1 0x0 SLOAD PUSH1 0x1 PUSH1 0x1 PUSH1 0xA0 SHL SUB AND CALLER EQ PUSH2 0x9DE JUMPI PUSH1 0x40 MLOAD PUSH3 0x461BCD PUSH1 0xE5 SHL DUP2 MSTORE PUSH1 0x4 ADD PUSH2 0x5D1 SWAP1 PUSH2 0x15C8 JUMP JUMPDEST PUSH1 0x0 DUP1 SLOAD PUSH1 0xFF PUSH1 0xA0 SHL NOT AND PUSH1 0x1 PUSH1 0xA0 SHL OR SWAP1 SSTORE JUMP JUMPDEST PUSH1 0x7 DUP2 DUP2 SLOAD DUP2 LT PUSH2 0xA06 JUMPI PUSH2 0xA06 PUSH2 0x15B2 JUMP JUMPDEST SWAP1 PUSH1 0x0 MSTORE PUSH1 0x20 PUSH1 0x0 KECCAK256 SWAP1 PUSH1 0x9 MUL ADD PUSH1 0x3 ADD SLOAD TIMESTAMP LT ISZERO PUSH2 0xA67 JUMPI PUSH1 0x40 MLOAD PUSH3 0x461BCD PUSH1 0xE5 SHL DUP2 MSTORE PUSH1 0x20 PUSH1 0x4 DUP3 ADD MSTORE PUSH1 0x1E PUSH1 0x24 DUP3 ADD MSTORE PUSH32 0x526577617264732063616E6E6F7420626520636C61696D656420796574210000 PUSH1 0x44 DUP3 ADD MSTORE PUSH1 0x64 ADD PUSH2 0x5D1 JUMP JUMPDEST PUSH1 0x0 DUP2 DUP2 MSTORE PUSH1 0x5 PUSH1 0x20 SWAP1 DUP2 MSTORE PUSH1 0x40 DUP1 DUP4 KECCAK256 CALLER DUP5 MSTORE SWAP1 SWAP2 MSTORE SWAP1 KECCAK256 SLOAD PUSH1 0xFF AND ISZERO ISZERO PUSH1 0x1 EQ PUSH2 0xAEA JUMPI PUSH1 0x40 MLOAD PUSH3 0x461BCD PUSH1 0xE5 SHL DUP2 MSTORE PUSH1 0x20 PUSH1 0x4 DUP3 ADD MSTORE PUSH1 0x2C PUSH1 0x24 DUP3 ADD MSTORE PUSH32 0x4C6F6F6B7320796F7520617265206E6F7420612077696E6E6572206F66207468 PUSH1 0x44 DUP3 ADD MSTORE PUSH12 0x697320696E7374616E636521 PUSH1 0xA0 SHL PUSH1 0x64 DUP3 ADD MSTORE PUSH1 0x84 ADD PUSH2 0x5D1 JUMP JUMPDEST PUSH1 0x0 PUSH2 0x2710 PUSH1 0x7 DUP4 DUP2 SLOAD DUP2 LT PUSH2 0xB02 JUMPI PUSH2 0xB02 PUSH2 0x15B2 JUMP JUMPDEST SWAP1 PUSH1 0x0 MSTORE PUSH1 0x20 PUSH1 0x0 KECCAK256 SWAP1 PUSH1 0x9 MUL ADD PUSH1 0x6 ADD SLOAD PUSH1 0x1 SLOAD PUSH2 0x2710 PUSH2 0xB24 SWAP2 SWAP1 PUSH2 0x1613 JUMP JUMPDEST PUSH2 0xB2E SWAP2 SWAP1 PUSH2 0x162A JUMP JUMPDEST PUSH2 0xB38 SWAP2 SWAP1 PUSH2 0x165F JUMP JUMPDEST SWAP1 POP PUSH1 0x0 PUSH1 0x7 DUP4 DUP2 SLOAD DUP2 LT PUSH2 0xB4F JUMPI PUSH2 0xB4F PUSH2 0x15B2 JUMP JUMPDEST SWAP1 PUSH1 0x0 MSTORE PUSH1 0x20 PUSH1 0x0 KECCAK256 SWAP1 PUSH1 0x9 MUL ADD PUSH1 0x5 ADD SLOAD DUP3 PUSH2 0xB6C SWAP2 SWAP1 PUSH2 0x165F JUMP JUMPDEST PUSH1 0x40 MLOAD SWAP1 SWAP2 POP CALLER SWAP1 DUP3 ISZERO PUSH2 0x8FC MUL SWAP1 DUP4 SWAP1 PUSH1 0x0 DUP2 DUP2 DUP2 DUP6 DUP9 DUP9 CALL SWAP4 POP POP POP POP ISZERO DUP1 ISZERO PUSH2 0xB9C JUMPI RETURNDATASIZE PUSH1 0x0 DUP1 RETURNDATACOPY RETURNDATASIZE PUSH1 0x0 REVERT JUMPDEST POP POP POP PUSH1 0x0 SWAP1 DUP2 MSTORE PUSH1 0x5 PUSH1 0x20 SWAP1 DUP2 MSTORE PUSH1 0x40 DUP1 DUP4 KECCAK256 CALLER DUP5 MSTORE SWAP1 SWAP2 MSTORE SWAP1 KECCAK256 DUP1 SLOAD PUSH1 0xFF NOT AND SWAP1 SSTORE JUMP JUMPDEST PUSH1 0x0 DUP3 DUP2 MSTORE PUSH1 0x5 PUSH1 0x20 SWAP1 DUP2 MSTORE PUSH1 0x40 DUP1 DUP4 KECCAK256 PUSH1 0x1 PUSH1 0x1 PUSH1 0xA0 SHL SUB DUP6 AND DUP5 MSTORE SWAP1 SWAP2 MSTORE SWAP1 KECCAK256 SLOAD PUSH1 0xFF AND JUMPDEST SWAP3 SWAP2 POP POP JUMP JUMPDEST PUSH1 0x0 SLOAD PUSH1 0x1 PUSH1 0xA0 SHL SWAP1 DIV PUSH1 0xFF AND ISZERO ISZERO PUSH1 0x1 EQ PUSH2 0xC0A JUMPI PUSH1 0x0 DUP1 REVERT JUMPDEST PUSH1 0x7 DUP2 DUP2 SLOAD DUP2 LT PUSH2 0xC1D JUMPI PUSH2 0xC1D PUSH2 0x15B2 JUMP JUMPDEST SWAP1 PUSH1 0x0 MSTORE PUSH1 0x20 PUSH1 0x0 KECCAK256 SWAP1 PUSH1 0x9 MUL ADD PUSH1 0x3 ADD SLOAD TIMESTAMP LT ISZERO PUSH2 0xC96 JUMPI PUSH1 0x40 MLOAD PUSH3 0x461BCD PUSH1 0xE5 SHL DUP2 MSTORE PUSH1 0x20 PUSH1 0x4 DUP3 ADD MSTORE PUSH1 0x2F PUSH1 0x24 DUP3 ADD MSTORE PUSH32 0x50726564696374696F6E20686173206E6F7420656E6465642079657420666F72 PUSH1 0x44 DUP3 ADD MSTORE PUSH15 0x207468697320696E7374616E636521 PUSH1 0x88 SHL PUSH1 0x64 DUP3 ADD MSTORE PUSH1 0x84 ADD PUSH2 0x5D1 JUMP JUMPDEST PUSH1 0x7 DUP2 DUP2 SLOAD DUP2 LT PUSH2 0xCA9 JUMPI PUSH2 0xCA9 PUSH2 0x15B2 JUMP JUMPDEST PUSH1 0x0 SWAP2 DUP3 MSTORE PUSH1 0x20 SWAP1 SWAP2 KECCAK256 PUSH1 0x4 PUSH1 0x9 SWAP1 SWAP3 MUL ADD ADD SLOAD PUSH1 0xFF AND ISZERO PUSH2 0xD1D JUMPI PUSH1 0x40 MLOAD PUSH3 0x461BCD PUSH1 0xE5 SHL DUP2 MSTORE PUSH1 0x20 PUSH1 0x4 DUP3 ADD MSTORE PUSH1 0x27 PUSH1 0x24 DUP3 ADD MSTORE PUSH32 0x5468697320696E7374616E63652068617320616C7265616479206265656E2073 PUSH1 0x44 DUP3 ADD MSTORE PUSH7 0x6574746C656421 PUSH1 0xC8 SHL PUSH1 0x64 DUP3 ADD MSTORE PUSH1 0x84 ADD PUSH2 0x5D1 JUMP JUMPDEST PUSH1 0x0 PUSH2 0xD27 PUSH2 0x1124 JUMP JUMPDEST SWAP1 POP DUP1 PUSH1 0x7 DUP4 DUP2 SLOAD DUP2 LT PUSH2 0xD3D JUMPI PUSH2 0xD3D PUSH2 0x15B2 JUMP JUMPDEST SWAP1 PUSH1 0x0 MSTORE PUSH1 0x20 PUSH1 0x0 KECCAK256 SWAP1 PUSH1 0x9 MUL ADD PUSH1 0x7 ADD DUP2 SWAP1 SSTORE POP PUSH1 0x0 PUSH2 0xD5E DUP4 DUP4 PUSH2 0x11C1 JUMP JUMPDEST SWAP1 POP PUSH2 0xD6A DUP4 DUP3 PUSH2 0x12F9 JUMP JUMPDEST PUSH1 0x1 PUSH1 0x7 DUP5 DUP2 SLOAD DUP2 LT PUSH2 0xD7F JUMPI PUSH2 0xD7F PUSH2 0x15B2 JUMP JUMPDEST PUSH1 0x0 SWAP2 DUP3 MSTORE PUSH1 0x20 SWAP1 SWAP2 KECCAK256 PUSH1 0x9 SWAP1 SWAP2 MUL ADD PUSH1 0x4 ADD DUP1 SLOAD PUSH1 0xFF NOT AND SWAP2 ISZERO ISZERO SWAP2 SWAP1 SWAP2 OR SWAP1 SSTORE PUSH2 0xDAB DUP4 CALLER PUSH2 0x13EB JUMP JUMPDEST POP POP POP JUMP JUMPDEST PUSH1 0x0 SLOAD PUSH1 0x1 PUSH1 0xA0 SHL SWAP1 DIV PUSH1 0xFF AND ISZERO ISZERO PUSH1 0x1 EQ PUSH2 0xDCB JUMPI PUSH1 0x0 DUP1 REVERT JUMPDEST PUSH1 0x7 DUP3 DUP2 SLOAD DUP2 LT PUSH2 0xDDE JUMPI PUSH2 0xDDE PUSH2 0x15B2 JUMP JUMPDEST SWAP1 PUSH1 0x0 MSTORE PUSH1 0x20 PUSH1 0x0 KECCAK256 SWAP1 PUSH1 0x9 MUL ADD PUSH1 0x1 ADD SLOAD TIMESTAMP LT ISZERO PUSH2 0xE59 JUMPI PUSH1 0x40 MLOAD PUSH3 0x461BCD PUSH1 0xE5 SHL DUP2 MSTORE PUSH1 0x20 PUSH1 0x4 DUP3 ADD MSTORE PUSH1 0x31 PUSH1 0x24 DUP3 ADD MSTORE PUSH32 0x50726564696374696F6E20686173206E6F742073746172746564207965742066 PUSH1 0x44 DUP3 ADD MSTORE PUSH17 0x6F72207468697320696E7374616E636521 PUSH1 0x78 SHL PUSH1 0x64 DUP3 ADD MSTORE PUSH1 0x84 ADD PUSH2 0x5D1 JUMP JUMPDEST PUSH1 0x7 DUP3 DUP2 SLOAD DUP2 LT PUSH2 0xE6C JUMPI PUSH2 0xE6C PUSH2 0x15B2 JUMP JUMPDEST SWAP1 PUSH1 0x0 MSTORE PUSH1 0x20 PUSH1 0x0 KECCAK256 SWAP1 PUSH1 0x9 MUL ADD PUSH1 0x2 ADD SLOAD TIMESTAMP GT ISZERO PUSH2 0xEDD JUMPI PUSH1 0x40 MLOAD PUSH3 0x461BCD PUSH1 0xE5 SHL DUP2 MSTORE PUSH1 0x20 PUSH1 0x4 DUP3 ADD MSTORE PUSH1 0x27 PUSH1 0x24 DUP3 ADD MSTORE PUSH32 0x50726564696374696F6E2068617320656E64656420666F72207468697320696E PUSH1 0x44 DUP3 ADD MSTORE PUSH7 0x7374616E636521 PUSH1 0xC8 SHL PUSH1 0x64 DUP3 ADD MSTORE PUSH1 0x84 ADD PUSH2 0x5D1 JUMP JUMPDEST PUSH1 0x7 DUP3 DUP2 SLOAD DUP2 LT PUSH2 0xEF0 JUMPI PUSH2 0xEF0 PUSH2 0x15B2 JUMP JUMPDEST SWAP1 PUSH1 0x0 MSTORE PUSH1 0x20 PUSH1 0x0 KECCAK256 SWAP1 PUSH1 0x9 MUL ADD PUSH1 0x0 ADD SLOAD CALLVALUE EQ PUSH2 0xF67 JUMPI PUSH1 0x40 MLOAD PUSH3 0x461BCD PUSH1 0xE5 SHL DUP2 MSTORE PUSH1 0x20 PUSH1 0x4 DUP3 ADD MSTORE PUSH1 0x2E PUSH1 0x24 DUP3 ADD MSTORE PUSH32 0x596F75206D75737420636F6D6D6974207468652065786163742045544820616D PUSH1 0x44 DUP3 ADD MSTORE PUSH14 0x6F756E7420746F20656E74657221 PUSH1 0x90 SHL PUSH1 0x64 DUP3 ADD MSTORE PUSH1 0x84 ADD PUSH2 0x5D1 JUMP JUMPDEST PUSH1 0x0 DUP3 DUP2 MSTORE PUSH1 0x2 PUSH1 0x20 SWAP1 DUP2 MSTORE PUSH1 0x40 DUP1 DUP4 KECCAK256 CALLER DUP1 DUP6 MSTORE SWAP1 DUP4 MSTORE DUP2 DUP5 KECCAK256 DUP6 SWAP1 SSTORE DUP6 DUP5 MSTORE PUSH1 0x4 DUP4 MSTORE DUP2 DUP5 KECCAK256 SWAP1 DUP5 MSTORE SWAP1 SWAP2 MSTORE SWAP1 KECCAK256 SLOAD PUSH1 0xFF AND ISZERO ISZERO PUSH1 0x1 EQ PUSH2 0xFD7 JUMPI PUSH1 0x0 DUP3 DUP2 MSTORE PUSH1 0x3 PUSH1 0x20 SWAP1 DUP2 MSTORE PUSH1 0x40 DUP3 KECCAK256 DUP1 SLOAD PUSH1 0x1 DUP2 ADD DUP3 SSTORE SWAP1 DUP4 MSTORE SWAP2 KECCAK256 ADD DUP1 SLOAD PUSH1 0x1 PUSH1 0x1 PUSH1 0xA0 SHL SUB NOT AND CALLER OR SWAP1 SSTORE PUSH2 0xFFC JUMP JUMPDEST PUSH1 0x0 DUP3 DUP2 MSTORE PUSH1 0x4 PUSH1 0x20 SWAP1 DUP2 MSTORE PUSH1 0x40 DUP1 DUP4 KECCAK256 CALLER DUP5 MSTORE SWAP1 SWAP2 MSTORE SWAP1 KECCAK256 DUP1 SLOAD PUSH1 0xFF NOT AND PUSH1 0x1 OR SWAP1 SSTORE JUMPDEST CALLVALUE PUSH1 0x7 DUP4 DUP2 SLOAD DUP2 LT PUSH2 0x1010 JUMPI PUSH2 0x1010 PUSH2 0x15B2 JUMP JUMPDEST SWAP1 PUSH1 0x0 MSTORE PUSH1 0x20 PUSH1 0x0 KECCAK256 SWAP1 PUSH1 0x9 MUL ADD PUSH1 0x6 ADD PUSH1 0x0 DUP3 DUP3 SLOAD PUSH2 0x1030 SWAP2 SWAP1 PUSH2 0x1673 JUMP JUMPDEST SWAP1 SWAP2 SSTORE POP POP POP POP JUMP JUMPDEST PUSH1 0x0 SLOAD PUSH1 0x1 PUSH1 0x1 PUSH1 0xA0 SHL SUB AND CALLER EQ PUSH2 0x1063 JUMPI PUSH1 0x40 MLOAD PUSH3 0x461BCD PUSH1 0xE5 SHL DUP2 MSTORE PUSH1 0x4 ADD PUSH2 0x5D1 SWAP1 PUSH2 0x15C8 JUMP JUMPDEST PUSH1 0x1 PUSH1 0x1 PUSH1 0xA0 SHL SUB DUP2 AND PUSH2 0x10C8 JUMPI PUSH1 0x40 MLOAD PUSH3 0x461BCD PUSH1 0xE5 SHL DUP2 MSTORE PUSH1 0x20 PUSH1 0x4 DUP3 ADD MSTORE PUSH1 0x26 PUSH1 0x24 DUP3 ADD MSTORE PUSH32 0x4F776E61626C653A206E6577206F776E657220697320746865207A65726F2061 PUSH1 0x44 DUP3 ADD MSTORE PUSH6 0x646472657373 PUSH1 0xD0 SHL PUSH1 0x64 DUP3 ADD MSTORE PUSH1 0x84 ADD PUSH2 0x5D1 JUMP JUMPDEST PUSH2 0x10D1 DUP2 PUSH2 0x10D4 JUMP JUMPDEST POP JUMP JUMPDEST PUSH1 0x0 DUP1 SLOAD PUSH1 0x1 PUSH1 0x1 PUSH1 0xA0 SHL SUB DUP4 DUP2 AND PUSH1 0x1 PUSH1 0x1 PUSH1 0xA0 SHL SUB NOT DUP4 AND DUP2 OR DUP5 SSTORE PUSH1 0x40 MLOAD SWAP2 SWAP1 SWAP3 AND SWAP3 DUP4 SWAP2 PUSH32 0x8BE0079C531659141344CD1FD0A4F28419497F9722A3DAAFE3B4186F6B6457E0 SWAP2 SWAP1 LOG3 POP POP JUMP JUMPDEST PUSH1 0x0 DUP1 PUSH1 0x6 PUSH1 0x0 SWAP1 SLOAD SWAP1 PUSH2 0x100 EXP SWAP1 DIV PUSH1 0x1 PUSH1 0x1 PUSH1 0xA0 SHL SUB AND PUSH1 0x1 PUSH1 0x1 PUSH1 0xA0 SHL SUB AND PUSH4 0xFEAF968C PUSH1 0x40 MLOAD DUP2 PUSH4 0xFFFFFFFF AND PUSH1 0xE0 SHL DUP2 MSTORE PUSH1 0x4 ADD PUSH1 0xA0 PUSH1 0x40 MLOAD DUP1 DUP4 SUB DUP2 DUP7 GAS STATICCALL ISZERO DUP1 ISZERO PUSH2 0x117A JUMPI RETURNDATASIZE PUSH1 0x0 DUP1 RETURNDATACOPY RETURNDATASIZE PUSH1 0x0 REVERT JUMPDEST POP POP POP POP PUSH1 0x40 MLOAD RETURNDATASIZE PUSH1 0x1F NOT PUSH1 0x1F DUP3 ADD AND DUP3 ADD DUP1 PUSH1 0x40 MSTORE POP DUP2 ADD SWAP1 PUSH2 0x119E SWAP2 SWAP1 PUSH2 0x16A5 JUMP JUMPDEST POP POP POP SWAP2 POP POP PUSH1 0x0 DUP2 PUSH8 0xDE0B6B3A7640000 PUSH2 0x11BA SWAP2 SWAP1 PUSH2 0x16F5 JUMP JUMPDEST SWAP4 SWAP3 POP POP POP JUMP JUMPDEST PUSH1 0x0 DUP3 DUP2 MSTORE PUSH1 0x3 PUSH1 0x20 MSTORE PUSH1 0x40 DUP2 KECCAK256 SLOAD PUSH2 0x122D JUMPI PUSH1 0x40 MLOAD PUSH3 0x461BCD PUSH1 0xE5 SHL DUP2 MSTORE PUSH1 0x20 PUSH1 0x4 DUP3 ADD MSTORE PUSH1 0x28 PUSH1 0x24 DUP3 ADD MSTORE PUSH32 0x4C6F6F6B73206E6F206F6E6520686173206A6F696E65642074686520696E7374 PUSH1 0x44 DUP3 ADD MSTORE PUSH8 0x30B731B290171717 PUSH1 0xC1 SHL PUSH1 0x64 DUP3 ADD MSTORE PUSH1 0x84 ADD PUSH2 0x5D1 JUMP JUMPDEST PUSH1 0x0 NOT PUSH1 0x0 DUP2 DUP2 JUMPDEST PUSH1 0x0 DUP8 DUP2 MSTORE PUSH1 0x3 PUSH1 0x20 MSTORE PUSH1 0x40 SWAP1 KECCAK256 SLOAD DUP2 LT ISZERO PUSH2 0x12EF JUMPI PUSH1 0x0 DUP8 DUP2 MSTORE PUSH1 0x3 PUSH1 0x20 MSTORE PUSH1 0x40 DUP2 KECCAK256 DUP1 SLOAD DUP4 SWAP1 DUP2 LT PUSH2 0x126B JUMPI PUSH2 0x126B PUSH2 0x15B2 JUMP JUMPDEST PUSH1 0x0 SWAP2 DUP3 MSTORE PUSH1 0x20 DUP1 DUP4 KECCAK256 SWAP1 SWAP2 ADD SLOAD DUP11 DUP4 MSTORE PUSH1 0x2 DUP3 MSTORE PUSH1 0x40 DUP1 DUP5 KECCAK256 PUSH1 0x1 PUSH1 0x1 PUSH1 0xA0 SHL SUB SWAP1 SWAP3 AND DUP1 DUP6 MSTORE SWAP2 SWAP1 SWAP3 MSTORE SWAP1 DUP3 KECCAK256 SLOAD SWAP1 SWAP3 POP SWAP1 PUSH2 0x12A9 DUP10 DUP4 PUSH2 0x1723 JUMP JUMPDEST SWAP1 POP PUSH1 0x0 DUP2 SLT PUSH2 0x12BB JUMPI DUP1 SWAP6 POP PUSH2 0x12CA JUMP JUMPDEST PUSH2 0x12C7 DUP2 PUSH1 0x0 NOT PUSH2 0x1762 JUMP JUMPDEST SWAP6 POP JUMPDEST DUP7 DUP7 LT ISZERO PUSH2 0x12D9 JUMPI DUP2 SWAP5 POP DUP6 SWAP7 POP JUMPDEST POP POP POP DUP1 DUP1 PUSH2 0x12E7 SWAP1 PUSH2 0x17E7 JUMP JUMPDEST SWAP2 POP POP PUSH2 0x1235 JUMP JUMPDEST POP SWAP6 SWAP5 POP POP POP POP POP JUMP JUMPDEST PUSH1 0x0 JUMPDEST PUSH1 0x0 DUP4 DUP2 MSTORE PUSH1 0x3 PUSH1 0x20 MSTORE PUSH1 0x40 SWAP1 KECCAK256 SLOAD DUP2 LT ISZERO PUSH2 0xDAB JUMPI PUSH1 0x0 DUP4 DUP2 MSTORE PUSH1 0x3 PUSH1 0x20 MSTORE PUSH1 0x40 DUP2 KECCAK256 DUP1 SLOAD DUP4 SWAP1 DUP2 LT PUSH2 0x1332 JUMPI PUSH2 0x1332 PUSH2 0x15B2 JUMP JUMPDEST PUSH1 0x0 SWAP2 DUP3 MSTORE PUSH1 0x20 DUP1 DUP4 KECCAK256 SWAP1 SWAP2 ADD SLOAD DUP7 DUP4 MSTORE PUSH1 0x2 DUP3 MSTORE PUSH1 0x40 DUP1 DUP5 KECCAK256 PUSH1 0x1 PUSH1 0x1 PUSH1 0xA0 SHL SUB SWAP1 SWAP3 AND DUP1 DUP6 MSTORE SWAP2 SWAP1 SWAP3 MSTORE SWAP2 KECCAK256 SLOAD SWAP1 SWAP2 POP DUP4 DUP2 EQ ISZERO PUSH2 0x13D6 JUMPI PUSH1 0x0 DUP6 DUP2 MSTORE PUSH1 0x5 PUSH1 0x20 SWAP1 DUP2 MSTORE PUSH1 0x40 DUP1 DUP4 KECCAK256 PUSH1 0x1 PUSH1 0x1 PUSH1 0xA0 SHL SUB DUP7 AND DUP5 MSTORE SWAP1 SWAP2 MSTORE SWAP1 KECCAK256 DUP1 SLOAD PUSH1 0xFF NOT AND PUSH1 0x1 SWAP1 DUP2 OR SWAP1 SWAP2 SSTORE PUSH1 0x7 DUP1 SLOAD DUP8 SWAP1 DUP2 LT PUSH2 0x13B0 JUMPI PUSH2 0x13B0 PUSH2 0x15B2 JUMP JUMPDEST SWAP1 PUSH1 0x0 MSTORE PUSH1 0x20 PUSH1 0x0 KECCAK256 SWAP1 PUSH1 0x9 MUL ADD PUSH1 0x5 ADD PUSH1 0x0 DUP3 DUP3 SLOAD PUSH2 0x13D0 SWAP2 SWAP1 PUSH2 0x1673 JUMP JUMPDEST SWAP1 SWAP2 SSTORE POP POP JUMPDEST POP POP DUP1 DUP1 PUSH2 0x13E3 SWAP1 PUSH2 0x17E7 JUMP JUMPDEST SWAP2 POP POP PUSH2 0x12FC JUMP JUMPDEST PUSH1 0x40 MLOAD PUSH1 0x1 PUSH1 0x1 PUSH1 0xA0 SHL SUB DUP3 AND SWAP1 PUSH1 0x0 SWAP1 PUSH7 0x11C37937E08000 SWAP1 DUP3 DUP2 DUP2 DUP2 DUP6 DUP9 DUP4 CALL SWAP4 POP POP POP POP ISZERO DUP1 ISZERO PUSH2 0xDAB JUMPI RETURNDATASIZE PUSH1 0x0 DUP1 RETURNDATACOPY RETURNDATASIZE PUSH1 0x0 REVERT JUMPDEST PUSH1 0x0 PUSH1 0x20 DUP3 DUP5 SUB SLT ISZERO PUSH2 0x1435 JUMPI PUSH1 0x0 DUP1 REVERT JUMPDEST POP CALLDATALOAD SWAP2 SWAP1 POP JUMP JUMPDEST DUP1 MLOAD DUP3 MSTORE PUSH1 0x20 DUP1 DUP3 ADD MLOAD SWAP1 DUP4 ADD MSTORE PUSH1 0x40 DUP1 DUP3 ADD MLOAD SWAP1 DUP4 ADD MSTORE PUSH1 0x60 DUP1 DUP3 ADD MLOAD SWAP1 DUP4 ADD MSTORE PUSH1 0x80 DUP1 DUP3 ADD MLOAD ISZERO ISZERO SWAP1 DUP4 ADD MSTORE PUSH1 0xA0 DUP1 DUP3 ADD MLOAD SWAP1 DUP4 ADD MSTORE PUSH1 0xC0 DUP1 DUP3 ADD MLOAD SWAP1 DUP4 ADD MSTORE PUSH1 0xE0 DUP1 DUP3 ADD MLOAD SWAP1 DUP4 ADD MSTORE PUSH2 0x100 SWAP1 DUP2 ADD MLOAD PUSH1 0x1 PUSH1 0x1 PUSH1 0xA0 SHL SUB AND SWAP2 ADD MSTORE JUMP JUMPDEST PUSH2 0x120 DUP2 ADD PUSH2 0xBE9 DUP3 DUP5 PUSH2 0x143C JUMP JUMPDEST PUSH1 0x20 DUP1 DUP3 MSTORE DUP3 MLOAD DUP3 DUP3 ADD DUP2 SWAP1 MSTORE PUSH1 0x0 SWAP2 SWAP1 DUP5 DUP3 ADD SWAP1 PUSH1 0x40 DUP6 ADD SWAP1 DUP5 JUMPDEST DUP2 DUP2 LT ISZERO PUSH2 0x14EF JUMPI PUSH2 0x14DB DUP4 DUP6 MLOAD PUSH2 0x143C JUMP JUMPDEST SWAP3 DUP5 ADD SWAP3 PUSH2 0x120 SWAP3 SWAP1 SWAP3 ADD SWAP2 PUSH1 0x1 ADD PUSH2 0x14C8 JUMP JUMPDEST POP SWAP1 SWAP7 SWAP6 POP POP POP POP POP POP JUMP JUMPDEST PUSH1 0x0 DUP1 PUSH1 0x0 DUP1 PUSH1 0x80 DUP6 DUP8 SUB SLT ISZERO PUSH2 0x1511 JUMPI PUSH1 0x0 DUP1 REVERT JUMPDEST POP POP DUP3 CALLDATALOAD SWAP5 PUSH1 0x20 DUP5 ADD CALLDATALOAD SWAP5 POP PUSH1 0x40 DUP5 ADD CALLDATALOAD SWAP4 PUSH1 0x60 ADD CALLDATALOAD SWAP3 POP SWAP1 POP JUMP JUMPDEST PUSH1 0x0 DUP1 PUSH1 0x40 DUP4 DUP6 SUB SLT ISZERO PUSH2 0x1540 JUMPI PUSH1 0x0 DUP1 REVERT JUMPDEST POP POP DUP1 CALLDATALOAD SWAP3 PUSH1 0x20 SWAP1 SWAP2 ADD CALLDATALOAD SWAP2 POP JUMP JUMPDEST DUP1 CALLDATALOAD PUSH1 0x1 PUSH1 0x1 PUSH1 0xA0 SHL SUB DUP2 AND DUP2 EQ PUSH2 0x1566 JUMPI PUSH1 0x0 DUP1 REVERT JUMPDEST SWAP2 SWAP1 POP JUMP JUMPDEST PUSH1 0x0 DUP1 PUSH1 0x40 DUP4 DUP6 SUB SLT ISZERO PUSH2 0x157E JUMPI PUSH1 0x0 DUP1 REVERT JUMPDEST DUP3 CALLDATALOAD SWAP2 POP PUSH2 0x158E PUSH1 0x20 DUP5 ADD PUSH2 0x154F JUMP JUMPDEST SWAP1 POP SWAP3 POP SWAP3 SWAP1 POP JUMP JUMPDEST PUSH1 0x0 PUSH1 0x20 DUP3 DUP5 SUB SLT ISZERO PUSH2 0x15A9 JUMPI PUSH1 0x0 DUP1 REVERT JUMPDEST PUSH2 0x11BA DUP3 PUSH2 0x154F JUMP JUMPDEST PUSH4 0x4E487B71 PUSH1 0xE0 SHL PUSH1 0x0 MSTORE PUSH1 0x32 PUSH1 0x4 MSTORE PUSH1 0x24 PUSH1 0x0 REVERT JUMPDEST PUSH1 0x20 DUP1 DUP3 MSTORE DUP2 DUP2 ADD MSTORE PUSH32 0x4F776E61626C653A2063616C6C6572206973206E6F7420746865206F776E6572 PUSH1 0x40 DUP3 ADD MSTORE PUSH1 0x60 ADD SWAP1 JUMP JUMPDEST PUSH4 0x4E487B71 PUSH1 0xE0 SHL PUSH1 0x0 MSTORE PUSH1 0x11 PUSH1 0x4 MSTORE PUSH1 0x24 PUSH1 0x0 REVERT JUMPDEST PUSH1 0x0 DUP3 DUP3 LT ISZERO PUSH2 0x1625 JUMPI PUSH2 0x1625 PUSH2 0x15FD JUMP JUMPDEST POP SUB SWAP1 JUMP JUMPDEST PUSH1 0x0 DUP2 PUSH1 0x0 NOT DIV DUP4 GT DUP3 ISZERO ISZERO AND ISZERO PUSH2 0x1644 JUMPI PUSH2 0x1644 PUSH2 0x15FD JUMP JUMPDEST POP MUL SWAP1 JUMP JUMPDEST PUSH4 0x4E487B71 PUSH1 0xE0 SHL PUSH1 0x0 MSTORE PUSH1 0x12 PUSH1 0x4 MSTORE PUSH1 0x24 PUSH1 0x0 REVERT JUMPDEST PUSH1 0x0 DUP3 PUSH2 0x166E JUMPI PUSH2 0x166E PUSH2 0x1649 JUMP JUMPDEST POP DIV SWAP1 JUMP JUMPDEST PUSH1 0x0 DUP3 NOT DUP3 GT ISZERO PUSH2 0x1686 JUMPI PUSH2 0x1686 PUSH2 0x15FD JUMP JUMPDEST POP ADD SWAP1 JUMP JUMPDEST DUP1 MLOAD PUSH10 0xFFFFFFFFFFFFFFFFFFFF DUP2 AND DUP2 EQ PUSH2 0x1566 JUMPI PUSH1 0x0 DUP1 REVERT JUMPDEST PUSH1 0x0 DUP1 PUSH1 0x0 DUP1 PUSH1 0x0 PUSH1 0xA0 DUP7 DUP9 SUB SLT ISZERO PUSH2 0x16BD JUMPI PUSH1 0x0 DUP1 REVERT JUMPDEST PUSH2 0x16C6 DUP7 PUSH2 0x168B JUMP JUMPDEST SWAP5 POP PUSH1 0x20 DUP7 ADD MLOAD SWAP4 POP PUSH1 0x40 DUP7 ADD MLOAD SWAP3 POP PUSH1 0x60 DUP7 ADD MLOAD SWAP2 POP PUSH2 0x16E9 PUSH1 0x80 DUP8 ADD PUSH2 0x168B JUMP JUMPDEST SWAP1 POP SWAP3 SWAP6 POP SWAP3 SWAP6 SWAP1 SWAP4 POP JUMP JUMPDEST PUSH1 0x0 DUP3 PUSH2 0x1704 JUMPI PUSH2 0x1704 PUSH2 0x1649 JUMP JUMPDEST PUSH1 0x1 PUSH1 0xFF SHL DUP3 EQ PUSH1 0x0 NOT DUP5 EQ AND ISZERO PUSH2 0x171E JUMPI PUSH2 0x171E PUSH2 0x15FD JUMP JUMPDEST POP SDIV SWAP1 JUMP JUMPDEST PUSH1 0x0 DUP1 DUP4 SLT DUP1 ISZERO PUSH1 0x1 PUSH1 0xFF SHL DUP6 ADD DUP5 SLT AND ISZERO PUSH2 0x1741 JUMPI PUSH2 0x1741 PUSH2 0x15FD JUMP JUMPDEST PUSH1 0x1 PUSH1 0x1 PUSH1 0xFF SHL SUB DUP5 ADD DUP4 SGT DUP2 AND ISZERO PUSH2 0x175C JUMPI PUSH2 0x175C PUSH2 0x15FD JUMP JUMPDEST POP POP SUB SWAP1 JUMP JUMPDEST PUSH1 0x0 PUSH1 0x1 PUSH1 0x1 PUSH1 0xFF SHL SUB DUP2 DUP5 SGT DUP3 DUP5 SGT DUP1 DUP3 AND DUP7 DUP5 DIV DUP7 GT AND ISZERO PUSH2 0x1788 JUMPI PUSH2 0x1788 PUSH2 0x15FD JUMP JUMPDEST PUSH1 0x1 PUSH1 0xFF SHL PUSH1 0x0 DUP8 SLT DUP3 DUP2 AND DUP8 DUP4 SDIV DUP10 SLT AND ISZERO PUSH2 0x17A7 JUMPI PUSH2 0x17A7 PUSH2 0x15FD JUMP JUMPDEST PUSH1 0x0 DUP8 SLT SWAP3 POP DUP8 DUP3 SDIV DUP8 SLT DUP5 DUP5 AND AND ISZERO PUSH2 0x17C3 JUMPI PUSH2 0x17C3 PUSH2 0x15FD JUMP JUMPDEST DUP8 DUP6 SDIV DUP8 SLT DUP2 DUP5 AND AND ISZERO PUSH2 0x17D9 JUMPI PUSH2 0x17D9 PUSH2 0x15FD JUMP JUMPDEST POP POP POP SWAP3 SWAP1 SWAP4 MUL SWAP4 SWAP3 POP POP POP JUMP JUMPDEST PUSH1 0x0 PUSH1 0x0 NOT DUP3 EQ ISZERO PUSH2 0x17FB JUMPI PUSH2 0x17FB PUSH2 0x15FD JUMP JUMPDEST POP PUSH1 0x1 ADD SWAP1 JUMP INVALID LOG2 PUSH5 0x6970667358 0x22 SLT KECCAK256 0xC7 DUP14 0xEF 0x5F CALLCODE SHR SGT PC DUP15 0xE4 0x2E 0x5D MOD STOP 0xC9 0x26 CALLVALUE 0xE5 0xCE EXTCODEHASH 0xD3 0xA6 0xDC DUP4 KECCAK256 GASPRICE BASEFEE DUP10 0xC7 0xD6 0xD2 0x25 PUSH5 0x736F6C6343 STOP ADDMOD SIGNEXTEND STOP CALLER ","sha1":"6108e4f6e43093db3f54fbcf9d2a8ca17f7da6fa","source":"// SPDX-License-Identifier: MIT\n\npragma solidity ^0.8.0;\n\nimport \"@openzeppelin/contracts/access/Ownable.sol\";\nimport \"@chainlink/contracts/src/v0.6/interfaces/AggregatorV3Interface.sol\";\n\n/**\n * @dev Contract module which can create prediction instance and let users post their own prediction\n * for ETH/USD future price. Settlement is made based on Chainlink price Oracle.\n */\n\ncontract PredictionPool is Ownable {\n\n    bool public isActive;\n    uint256 public fee;\n    mapping(uint256 => mapping(address => uint256)) public predictions;\n    mapping(uint256 => address[]) public participants;\n    mapping(uint256 => mapping(address => bool)) public hasParticipated;\n    mapping(uint256 => mapping(address => bool)) public winners;\n    AggregatorV3Interface internal ethUsdPriceFeed;\n\n    /**\n     * @dev struct containing all the prediction info\n     */\n    struct predictionSpec {\n        uint256 commitment;\n        uint256 startStamp;\n        uint256 lockStamp;\n        uint256 endStamp;\n        bool settlement;\n        uint256 winnersCount;\n        uint256 instanceValue;\n        uint256 closingPrice;\n        address creator;\n    }\n\n    /**\n     * @dev array of predictionSpec\n     */\n    predictionSpec[] public predictionsSpec;\n\n    /**\n     * @dev requires pool to be active\n     */\n    modifier onlyActive {\n        require(isActive == true);\n        _;\n    }\n\n    constructor(address _priceFeed) public {\n        ethUsdPriceFeed = AggregatorV3Interface(_priceFeed);\n        fee = 100;\n    }\n\n    /**\n     * @dev lets admin open the pool\n     */\n    function openPredictionPool() public onlyOwner {\n        isActive = true;\n    }\n\n    /**\n     * @dev lets admin close the pool\n     */\n    function closePredictionPool() public onlyOwner {\n        isActive = false;\n    }\n\n    /**\n     * @dev sets pool fee that's deducted from final settlement\n     */\n    function setPoolFee(uint256 _fee) public onlyOwner {\n        fee = _fee;\n    }\n\n    /**\n     * @dev lets any user create a prediction instance (payable)\n     */\n    function createInstance(uint256 _commitment, uint256 _start, uint256 _lock, uint256 _end) public payable onlyActive {\n        require(msg.value >= 0.005 ether, \"You must spend 0.005 ETH to create a custom instance\");\n        predictionSpec memory newPredictionSpec = predictionSpec({\n        commitment : _commitment,\n        startStamp : _start,\n        lockStamp : _lock,\n        endStamp : _end,\n        settlement : false,\n        winnersCount : 0,\n        instanceValue : 0,\n        closingPrice : 0,\n        creator : msg.sender\n        });\n        predictionsSpec.push(newPredictionSpec);\n    }\n\n    /**\n     * @dev registers prediction of users\n     */\n    function registerPrediction(uint256 _instance, uint256 _prediction) public payable onlyActive {\n        require(block.timestamp >= predictionsSpec[_instance].startStamp, \"Prediction has not started yet for this instance!\");\n        require(block.timestamp <= predictionsSpec[_instance].lockStamp, \"Prediction has ended for this instance!\");\n        require(msg.value == predictionsSpec[_instance].commitment, \"You must commit the exact ETH amount to enter!\");\n        predictions[_instance][msg.sender] = _prediction;\n        if (hasParticipated[_instance][msg.sender] != true) {\n            participants[_instance].push(msg.sender);\n        } else {\n            hasParticipated[_instance][msg.sender] = true;\n        }\n        predictionsSpec[_instance].instanceValue += msg.value;\n    }\n\n    /**\n     * @dev gets ETH/USD price from Chainlink price oracle\n     */\n    function getClosingPrice() internal returns (uint256) {\n        (, int256 price,,,) = ethUsdPriceFeed.latestRoundData();\n        uint256 adjustedPrice = uint256(10 ** 18 / price);\n        return adjustedPrice;\n    }\n\n    /**\n     * @dev settles any instance if timestamp respected\n     */\n    function settleInstance(uint256 _instance) public onlyActive {\n        require(block.timestamp >= predictionsSpec[_instance].endStamp, \"Prediction has not ended yet for this instance!\");\n        require(predictionsSpec[_instance].settlement == false, \"This instance has already been settled!\");\n        uint256 closingPrice = getClosingPrice();\n        predictionsSpec[_instance].closingPrice = closingPrice;\n        uint256 closestPrediction = getClosestPrediction(_instance, closingPrice);\n        getWinnersFromClosest(_instance, closestPrediction);\n        predictionsSpec[_instance].settlement = true;\n        compensateCaller(_instance, msg.sender);\n    }\n\n    /**\n     * @dev gets closest prediction from all participants based on price oracle\n     */\n    function getClosestPrediction(uint256 _instance, uint256 _closingPrice) internal returns (uint256) {\n        require(participants[_instance].length > 0, \"Looks no one has joined the instance ...\");\n        uint256 maxDelta = type(uint256).max;\n        uint256 absoluteDelta;\n        uint256 closestPrediction = maxDelta;\n\n        for (uint256 participantIndex = 0; participantIndex < participants[_instance].length; participantIndex++) {\n\n            address participantAddress = participants[_instance][participantIndex];\n            uint256 participantPrediction = predictions[_instance][participantAddress];\n            int256 delta = (int(participantPrediction) - int(_closingPrice));\n\n            if (delta >= 0) {\n                absoluteDelta = uint(delta);\n            } else {\n                absoluteDelta = uint(- 1 * delta);\n            }\n\n            if (absoluteDelta < maxDelta) {\n                closestPrediction = participantPrediction;\n                maxDelta = absoluteDelta;\n            }\n        }\n\n        return closestPrediction;\n\n    }\n\n    /**\n     * @dev gets winner(s) based on closestPrediction\n     */\n    function getWinnersFromClosest(uint256 _instance, uint256 _closestPrediction) internal {\n\n        for (uint256 participantIndex = 0; participantIndex < participants[_instance].length; participantIndex++) {\n            address participantAddress = participants[_instance][participantIndex];\n            uint256 participantPrediction = predictions[_instance][participantAddress];\n            if (participantPrediction == _closestPrediction) {\n                winners[_instance][participantAddress] = true;\n                predictionsSpec[_instance].winnersCount += 1;\n            }\n        }\n    }\n\n    /**\n     * @dev incentives function caller\n     */\n    function compensateCaller(uint256 _instance, address _caller) internal {\n        payable(_caller).transfer(0.005 ether);\n    }\n\n    /**\n     * @dev pays winners if they claim their gain\n     */\n    function claimReward(uint256 _instance) public {\n        require(block.timestamp >= predictionsSpec[_instance].endStamp, \"Rewards cannot be claimed yet!\");\n        require(winners[_instance][msg.sender] == true, \"Looks you are not a winner of this instance!\");\n        uint256 valueToBeShared = (10000 - fee) * predictionsSpec[_instance].instanceValue / 10000;\n        uint256 amountPerAddress = valueToBeShared / predictionsSpec[_instance].winnersCount;\n        payable(msg.sender).transfer(amountPerAddress);\n        winners[_instance][msg.sender] = false;\n    }\n\n\n    function instanceView(uint256 _instance) public view returns (predictionSpec memory) {\n        return predictionsSpec[_instance];\n    }\n\n    function instanceViewAll() public view returns (predictionSpec[] memory) {\n        return predictionsSpec;\n    }\n\n    function instanceWinnerView(uint256 _instance, address _account) public view returns (bool) {\n        return winners[_instance][_account];\n    }\n\n}\n","sourcePath":"contracts/PredictionPool.sol","type":"contract","deployment":{"address":"0x00805DeE78e05A2aBd85df8658fE7f820843496f","chainid":"42","blockHeight":30595190}}